{
  "address": "0xF51270507a303231a5EeBF7683d3532B4246abAb",
  "abi": [
    {
      "inputs": [
        {
          "internalType": "address",
          "name": "_previousRegistrar",
          "type": "address"
        },
        {
          "internalType": "address",
          "name": "_resolver",
          "type": "address"
        },
        {
          "internalType": "contract DNSSEC",
          "name": "_dnssec",
          "type": "address"
        },
        {
          "internalType": "contract PublicSuffixList",
          "name": "_suffixes",
          "type": "address"
        },
        {
          "internalType": "contract ENS",
          "name": "_ens",
          "type": "address"
        }
      ],
      "stateMutability": "nonpayable",
      "type": "constructor"
    },
    {
      "inputs": [
        {
          "internalType": "bytes",
          "name": "name",
          "type": "bytes"
        }
      ],
      "name": "InvalidPublicSuffix",
      "type": "error"
    },
    {
      "inputs": [],
      "name": "NoOwnerRecordFound",
      "type": "error"
    },
    {
      "inputs": [
        {
          "internalType": "uint256",
          "name": "offset",
          "type": "uint256"
        },
        {
          "internalType": "uint256",
          "name": "length",
          "type": "uint256"
        }
      ],
      "name": "OffsetOutOfBoundsError",
      "type": "error"
    },
    {
      "inputs": [
        {
          "internalType": "address",
          "name": "caller",
          "type": "address"
        },
        {
          "internalType": "address",
          "name": "owner",
          "type": "address"
        }
      ],
      "name": "PermissionDenied",
      "type": "error"
    },
    {
      "inputs": [],
      "name": "PreconditionNotMet",
      "type": "error"
    },
    {
      "inputs": [],
      "name": "StaleProof",
      "type": "error"
    },
    {
      "anonymous": false,
      "inputs": [
        {
          "indexed": true,
          "internalType": "bytes32",
          "name": "node",
          "type": "bytes32"
        },
        {
          "indexed": true,
          "internalType": "address",
          "name": "owner",
          "type": "address"
        },
        {
          "indexed": false,
          "internalType": "bytes",
          "name": "dnsname",
          "type": "bytes"
        },
        {
          "indexed": false,
          "internalType": "uint32",
          "name": "inception",
          "type": "uint32"
        }
      ],
      "name": "Claim",
      "type": "event"
    },
    {
      "anonymous": false,
      "inputs": [
        {
          "indexed": false,
          "internalType": "address",
          "name": "suffixes",
          "type": "address"
        }
      ],
      "name": "NewPublicSuffixList",
      "type": "event"
    },
    {
      "inputs": [
        {
          "internalType": "bytes",
          "name": "domain",
          "type": "bytes"
        }
      ],
      "name": "enableNode",
      "outputs": [
        {
          "internalType": "bytes32",
          "name": "node",
          "type": "bytes32"
        }
      ],
      "stateMutability": "nonpayable",
      "type": "function"
    },
    {
      "inputs": [],
      "name": "ens",
      "outputs": [
        {
          "internalType": "contract ENS",
          "name": "",
          "type": "address"
        }
      ],
      "stateMutability": "view",
      "type": "function"
    },
    {
      "inputs": [
        {
          "internalType": "bytes32",
          "name": "",
          "type": "bytes32"
        }
      ],
      "name": "inceptions",
      "outputs": [
        {
          "internalType": "uint32",
          "name": "",
          "type": "uint32"
        }
      ],
      "stateMutability": "view",
      "type": "function"
    },
    {
      "inputs": [],
      "name": "oracle",
      "outputs": [
        {
          "internalType": "contract DNSSEC",
          "name": "",
          "type": "address"
        }
      ],
      "stateMutability": "view",
      "type": "function"
    },
    {
      "inputs": [],
      "name": "previousRegistrar",
      "outputs": [
        {
          "internalType": "address",
          "name": "",
          "type": "address"
        }
      ],
      "stateMutability": "view",
      "type": "function"
    },
    {
      "inputs": [
        {
          "internalType": "bytes",
          "name": "name",
          "type": "bytes"
        },
        {
          "components": [
            {
              "internalType": "bytes",
              "name": "rrset",
              "type": "bytes"
            },
            {
              "internalType": "bytes",
              "name": "sig",
              "type": "bytes"
            }
          ],
          "internalType": "struct DNSSEC.RRSetWithSignature[]",
          "name": "input",
          "type": "tuple[]"
        }
      ],
      "name": "proveAndClaim",
      "outputs": [],
      "stateMutability": "nonpayable",
      "type": "function"
    },
    {
      "inputs": [
        {
          "internalType": "bytes",
          "name": "name",
          "type": "bytes"
        },
        {
          "components": [
            {
              "internalType": "bytes",
              "name": "rrset",
              "type": "bytes"
            },
            {
              "internalType": "bytes",
              "name": "sig",
              "type": "bytes"
            }
          ],
          "internalType": "struct DNSSEC.RRSetWithSignature[]",
          "name": "input",
          "type": "tuple[]"
        },
        {
          "internalType": "address",
          "name": "resolver",
          "type": "address"
        },
        {
          "internalType": "address",
          "name": "addr",
          "type": "address"
        }
      ],
      "name": "proveAndClaimWithResolver",
      "outputs": [],
      "stateMutability": "nonpayable",
      "type": "function"
    },
    {
      "inputs": [],
      "name": "resolver",
      "outputs": [
        {
          "internalType": "address",
          "name": "",
          "type": "address"
        }
      ],
      "stateMutability": "view",
      "type": "function"
    },
    {
      "inputs": [
        {
          "internalType": "contract PublicSuffixList",
          "name": "_suffixes",
          "type": "address"
        }
      ],
      "name": "setPublicSuffixList",
      "outputs": [],
      "stateMutability": "nonpayable",
      "type": "function"
    },
    {
      "inputs": [],
      "name": "suffixes",
      "outputs": [
        {
          "internalType": "contract PublicSuffixList",
          "name": "",
          "type": "address"
        }
      ],
      "stateMutability": "view",
      "type": "function"
    },
    {
      "inputs": [
        {
          "internalType": "bytes4",
          "name": "interfaceID",
          "type": "bytes4"
        }
      ],
      "name": "supportsInterface",
      "outputs": [
        {
          "internalType": "bool",
          "name": "",
          "type": "bool"
        }
      ],
      "stateMutability": "pure",
      "type": "function"
    }
  ],
  "transactionHash": "0x7b461e4473cf19ecbe12defa46a42dfe4fcf5e37e5b8798aef955918a23a93ca",
  "args": [
    "0x31980932234c8829162f5AEe26559b3F2857172D",
    "0xd3e097b868674EDb45143d7F6b0A30eCEbFd75f2",
    "0xBbC6854E53d6Bd3D9317Aef372c70A5C4899a7E2",
    "0x0a9D4b1f973f9df1D98e7b52822C2951ccF39518",
    "0x669648f990a6926177E3BbE9310955B6A4a99539"
  ],
  "numDeployments": 8,
  "solcInputHash": "2e364835b1940c79f5bc541a12734cdf",
  "bytecode": "0x6101006040523480156200001257600080fd5b5060405162002344380380620023448339810160408190526200003591620000c8565b6001600160a01b0385811660c05284811660e05283811660a052600080546001600160a01b03191691841691821790556040519081527f9176b7f47e4504df5e5516c99d90d82ac7cbd49cc77e7f22ba2ac2f2e3a3eba89060200160405180910390a16001600160a01b0316608052506200014892505050565b6001600160a01b0381168114620000c557600080fd5b50565b600080600080600060a08688031215620000e157600080fd5b8551620000ee81620000af565b60208701519095506200010181620000af565b60408701519094506200011481620000af565b60608701519093506200012781620000af565b60808701519092506200013a81620000af565b809150509295509295909350565b60805160a05160c05160e051612176620001ce6000396000818160fb01528181610cde0152610d950152600081816102320152610b6301526000818161020b01526108020152600081816101c301528181610397015281816104f8015281816106b301528181610ae301528181610bba01528181610d060152610dc401526121766000f3fe608060405234801561001057600080fd5b50600436106100c95760003560e01c806329d56630116100815780636f9512211161005b5780636f951221146101e55780637dc0d1d014610206578063ab14ec591461022d57600080fd5b806329d566301461019857806330349ebe146101ab5780633f15457f146101be57600080fd5b806306963218116100b257806306963218146101355780631ecfc4111461014a57806325916d411461015d57600080fd5b806301ffc9a7146100ce57806304f3bcec146100f6575b600080fd5b6100e16100dc3660046119d8565b610254565b60405190151581526020015b60405180910390f35b61011d7f000000000000000000000000000000000000000000000000000000000000000081565b6040516001600160a01b0390911681526020016100ed565b610148610143366004611c1a565b6102ed565b005b610148610158366004611ca3565b6104df565b61018361016b366004611cc0565b60016020526000908152604090205463ffffffff1681565b60405163ffffffff90911681526020016100ed565b6101486101a6366004611cd9565b610656565b60005461011d906001600160a01b031681565b61011d7f000000000000000000000000000000000000000000000000000000000000000081565b6101f86101f3366004611d3d565b61072a565b6040519081526020016100ed565b61011d7f000000000000000000000000000000000000000000000000000000000000000081565b61011d7f000000000000000000000000000000000000000000000000000000000000000081565b60007fffffffff0000000000000000000000000000000000000000000000000000000082167f01ffc9a70000000000000000000000000000000000000000000000000000000014806102e757507fffffffff0000000000000000000000000000000000000000000000000000000082167f2f43542800000000000000000000000000000000000000000000000000000000145b92915050565b60008060006102fc87876107f8565b91945092509050336001600160a01b0382161461035b576040517fe03f60240000000000000000000000000000000000000000000000000000000081523360048201526001600160a01b03821660248201526044015b60405180910390fd5b6040516305ef2c7f60e41b815260048101849052602481018390526001600160a01b0382811660448301528681166064830152600060848301527f00000000000000000000000000000000000000000000000000000000000000001690635ef2c7f09060a401600060405180830381600087803b1580156103db57600080fd5b505af11580156103ef573d6000803e3d6000fd5b505050506001600160a01b038416156104d6576001600160a01b03851661042957604051633c584f1360e21b815260040160405180910390fd5b604080516020810185905290810183905260009060600160408051808303601f190181529082905280516020909101207fd5fa2b00000000000000000000000000000000000000000000000000000000008252600482018190526001600160a01b03878116602484015290925087169063d5fa2b0090604401600060405180830381600087803b1580156104bc57600080fd5b505af11580156104d0573d6000803e3d6000fd5b50505050505b50505050505050565b6040516302571be360e01b8152600060048201819052907f00000000000000000000000000000000000000000000000000000000000000006001600160a01b0316906302571be390602401602060405180830381865afa158015610547573d6000803e3d6000fd5b505050506040513d601f19601f8201168201806040525081019061056b9190611d72565b90506000816001600160a01b0316638da5cb5b6040518163ffffffff1660e01b8152600401602060405180830381865afa1580156105ad573d6000803e3d6000fd5b505050506040513d601f19601f820116820180604052508101906105d19190611d72565b9050336001600160a01b038216146105e857600080fd5b600080547fffffffffffffffffffffffff0000000000000000000000000000000000000000166001600160a01b0385169081179091556040519081527f9176b7f47e4504df5e5516c99d90d82ac7cbd49cc77e7f22ba2ac2f2e3a3eba89060200160405180910390a1505050565b600080600061066585856107f8565b6040517f06ab592300000000000000000000000000000000000000000000000000000000815260048101849052602481018390526001600160a01b03828116604483015293965091945092507f0000000000000000000000000000000000000000000000000000000000000000909116906306ab5923906064016020604051808303816000875af11580156106fe573d6000803e3d6000fd5b505050506040513d601f19601f820116820180604052508101906107229190611d8f565b505050505050565b600080546040517f4f89059e0000000000000000000000000000000000000000000000000000000081526001600160a01b0390911690634f89059e90610774908590600401611df8565b602060405180830381865afa158015610791573d6000803e3d6000fd5b505050506040513d601f19601f820116820180604052508101906107b59190611e0b565b6107ed57816040517f396e24b80000000000000000000000000000000000000000000000000000000081526004016103529190611df8565b6102e7826000610a35565b60008060008060007f00000000000000000000000000000000000000000000000000000000000000006001600160a01b031663bdf95fef876040518263ffffffff1660e01b815260040161084c9190611e2d565b600060405180830381865afa158015610869573d6000803e3d6000fd5b505050506040513d6000823e601f3d908101601f191682016040526108919190810190611eb2565b909250905060006108a28882610e58565b60ff1690506108b388600183610e7c565b945060006108e66108c5836001611f5f565b6001848c516108d49190611f72565b6108de9190611f72565b8b9190610ea0565b90506108f18161072a565b965060008787604051602001610911929190918252602082015260400190565b60408051808303601f190181529181528151602092830120600081815260019093529082205490925063ffffffff16850360030b121561097d576040517f2dd6a7af00000000000000000000000000000000000000000000000000000000815260040160405180910390fd5b6000818152600160205260408120805463ffffffff191663ffffffff87161790556109a88b87610f22565b9097509050806109e4576040517f6260f6f800000000000000000000000000000000000000000000000000000000815260040160405180910390fd5b866001600160a01b0316827f87db02a0e483e2818060eddcbb3488ce44e35aff49a70d92c2aa6c8046cf01e28d88604051610a20929190611f85565b60405180910390a35050505050509250925092565b600080610a428484610e58565b60ff16905080600003610a595750600090506102e7565b6000610a7985610a698487611f5f565b610a74906001611f5f565b610a35565b90506000610a93610a8b866001611f5f565b879085610e7c565b604080516020810185905290810182905290915060600160408051601f198184030181529082905280516020909101206302571be360e01b82526004820181905294506000906001600160a01b037f000000000000000000000000000000000000000000000000000000000000000016906302571be390602401602060405180830381865afa158015610b2a573d6000803e3d6000fd5b505050506040513d601f19601f82011682018060405250810190610b4e9190611d72565b90506001600160a01b0381161580610b9757507f00000000000000000000000000000000000000000000000000000000000000006001600160a01b0316816001600160a01b0316145b15610e255782610d6a576040516302571be360e01b8152600060048201819052907f00000000000000000000000000000000000000000000000000000000000000006001600160a01b0316906302571be390602401602060405180830381865afa158015610c09573d6000803e3d6000fd5b505050506040513d601f19601f82011682018060405250810190610c2d9190611d72565b6040517f8cb8ecec000000000000000000000000000000000000000000000000000000008152600481018590523060248201529091506001600160a01b03821690638cb8ecec90604401600060405180830381600087803b158015610c9157600080fd5b505af1158015610ca5573d6000803e3d6000fd5b50506040517f1896f70a000000000000000000000000000000000000000000000000000000008152600481018990526001600160a01b037f0000000000000000000000000000000000000000000000000000000000000000811660248301527f0000000000000000000000000000000000000000000000000000000000000000169250631896f70a9150604401600060405180830381600087803b158015610d4c57600080fd5b505af1158015610d60573d6000803e3d6000fd5b5050505050610e4e565b6040516305ef2c7f60e41b815260048101849052602481018390523060448201526001600160a01b037f000000000000000000000000000000000000000000000000000000000000000081166064830152600060848301527f00000000000000000000000000000000000000000000000000000000000000001690635ef2c7f09060a401600060405180830381600087803b158015610e0857600080fd5b505af1158015610e1c573d6000803e3d6000fd5b50505050610e4e565b6001600160a01b0381163014610e4e57604051633c584f1360e21b815260040160405180910390fd5b5050505092915050565b6000828281518110610e6c57610e6c611fad565b016020015160f81c905092915050565b8251600090610e8b8385611f5f565b1115610e9657600080fd5b5091016020012090565b8251606090610eaf8385611f5f565b1115610eba57600080fd5b60008267ffffffffffffffff811115610ed557610ed5611a1a565b6040519080825280601f01601f191660200182016040528015610eff576020820181803683370190505b50905060208082019086860101610f17828287611030565b509095945050505050565b600080610f42604051806040016040528060608152602001600081525090565b610f5a85516005610f539190611f5f565b8290611086565b5060408051808201909152600581527f045f656e730000000000000000000000000000000000000000000000000000006020820152610f9a9082906110fd565b50610fa581866110fd565b506000610fb28582611125565b90505b8051516020820151101561101f578151610fd890610fd283611186565b906111a7565b60000361101157600080610ff5878460a001518560c00151611300565b92509050811561100e5794506001935061102992505050565b50505b61101a81611373565b610fb5565b5060008092509250505b9250929050565b602081106110685781518352611047602084611f5f565b9250611054602083611f5f565b9150611061602082611f72565b9050611030565b905182516020929092036101000a6000190180199091169116179052565b6040805180820190915260608152600060208201526110a6602083611fc3565b156110ce576110b6602083611fc3565b6110c1906020611f72565b6110cb9083611f5f565b91505b6020808401839052604051808552600081529081840101818110156110f257600080fd5b604052509192915050565b60408051808201909152606081526000602082015261111e8383845161145b565b9392505050565b6111736040518060e001604052806060815260200160008152602001600061ffff168152602001600061ffff168152602001600063ffffffff16815260200160008152602001600081525090565b82815260c081018290526102e781611373565b602081015181516060916102e79161119e9082611531565b84519190610ea0565b60006111b38383611593565b156111c0575060006102e7565b60008060008060006111d38860006115b1565b905060006111e28860006115b1565b90505b8082111561120e578593506111fa898761160e565b95508161120681611fe5565b9250506111e5565b8181111561123757849250611223888661160e565b94508061122f81611fe5565b91505061120e565b600082118015611250575061124e89878a88611632565b155b1561128557859350611262898761160e565b9550849250611271888661160e565b945061127e600183611f72565b9150611237565b8560000361129d5760001996505050505050506102e7565b846000036112b457600196505050505050506102e7565b6112f36112c2856001611f5f565b6112cc8b87610e58565b60ff168a6112db876001611f5f565b6112e58d89610e58565b8e949392919060ff16611667565b9998505050505050505050565b6000805b828410156113645760006113188686610e58565b60ff169050611328600186611f5f565b94506000806113388888856117e5565b9250905081156113505793506001925061136b915050565b61135a8388611f5f565b9650505050611304565b5060009050805b935093915050565b60c0810151602082018190528151511161138a5750565b600061139e82600001518360200151611531565b82602001516113ad9190611f5f565b82519091506113bc9082611839565b61ffff1660408301526113d0600282611f5f565b82519091506113df9082611839565b61ffff1660608301526113f3600282611f5f565b82519091506114029082611861565b63ffffffff166080830152611418600482611f5f565b825190915060009061142a9083611839565b61ffff16905061143b600283611f5f565b60a08401819052915061144e8183611f5f565b60c0909301929092525050565b604080518082019091526060815260006020820152825182111561147e57600080fd5b835151600061148d8483611f5f565b905085602001518111156114af576114af866114aa836002611ffc565b61188b565b8551805183820160200191600091808511156114c9578482525b505050602086015b6020861061150957805182526114e8602083611f5f565b91506114f5602082611f5f565b9050611502602087611f72565b95506114d1565b51815160001960208890036101000a0190811690199190911617905250849150509392505050565b6000815b8351811061154557611545612013565b60006115518583610e58565b60ff169050611561816001611f5f565b61156b9083611f5f565b91508060000361157b5750611581565b50611535565b61158b8382611f72565b949350505050565b60008151835114801561111e575061111e83600084600087516118a8565b6000805b835183106115c5576115c5612013565b60006115d18585610e58565b60ff1690506115e1816001611f5f565b6115eb9085611f5f565b9350806000036115fb575061111e565b611606600183611f5f565b9150506115b5565b600061161a8383610e58565b60ff16611628836001611f5f565b61111e9190611f5f565b600061164b83838486516116469190611f72565b610e7c565b61165d86868789516116469190611f72565b1495945050505050565b85516000906116768688611f5f565b11156116aa576116868587611f5f565b8751604051638a3c1cfb60e01b815260048101929092526024820152604401610352565b83516116b68385611f5f565b11156116ea576116c68284611f5f565b8451604051638a3c1cfb60e01b815260048101929092526024820152604401610352565b84808310156116f65750815b60208789018101908587010160005b838110156117ca578251825180821461179a57600060206117268589611f72565b106117345750600019611770565b600187611742866020611f5f565b61174c9190611f72565b611757906008611ffc565b61176290600261210d565b61176c9190611f72565b1990505b6000611780838316858416612119565b905080156117975797506117db9650505050505050565b50505b6117a5602086611f5f565b94506117b2602085611f5f565b935050506020816117c39190611f5f565b9050611705565b506117d58589612119565b93505050505b9695505050505050565b6000806117f28585611861565b63ffffffff1663613d30781461180d5750600090508061136b565b61182d61181b856004611f5f565b6118258587611f5f565b8791906118cb565b91509150935093915050565b8151600090611849836002611f5f565b111561185457600080fd5b50016002015161ffff1690565b8151600090611871836004611f5f565b111561187c57600080fd5b50016004015163ffffffff1690565b81516118978383611086565b506118a283826110fd565b50505050565b60006118b5848484610e7c565b6118c0878785610e7c565b149695505050505050565b60008060286118da8585611f72565b10156118eb5750600090508061136b565b6000806118f9878787611907565b909890975095505050505050565b825160009060019083111561191b57600080fd5b61196c565b6000603a8210602f831116156119385750602f190190565b6047821060408311161561194e57506036190190565b6067821060608311161561196457506056190190565b5060ff919050565b60208501845b848110156119ce576119898183015160001a611920565b61199b6001830184015160001a611920565b60ff811460ff831417156119b4576000945050506119ce565b60049190911b1760089490941b9390931792600201611972565b5050935093915050565b6000602082840312156119ea57600080fd5b81357fffffffff000000000000000000000000000000000000000000000000000000008116811461111e57600080fd5b634e487b7160e01b600052604160045260246000fd5b6040805190810167ffffffffffffffff81118282101715611a5357611a53611a1a565b60405290565b604051601f8201601f1916810167ffffffffffffffff81118282101715611a8257611a82611a1a565b604052919050565b600067ffffffffffffffff821115611aa457611aa4611a1a565b50601f01601f191660200190565b600082601f830112611ac357600080fd5b8135611ad6611ad182611a8a565b611a59565b818152846020838601011115611aeb57600080fd5b816020850160208301376000918101602001919091529392505050565b600082601f830112611b1957600080fd5b8135602067ffffffffffffffff80831115611b3657611b36611a1a565b8260051b611b45838201611a59565b9384528581018301938381019088861115611b5f57600080fd5b84880192505b85831015611bf657823584811115611b7d5760008081fd5b88016040818b03601f1901811315611b955760008081fd5b611b9d611a30565b8783013587811115611baf5760008081fd5b611bbd8d8a83870101611ab2565b825250908201359086821115611bd35760008081fd5b611be18c8984860101611ab2565b81890152845250509184019190840190611b65565b98975050505050505050565b6001600160a01b0381168114611c1757600080fd5b50565b60008060008060808587031215611c3057600080fd5b843567ffffffffffffffff80821115611c4857600080fd5b611c5488838901611ab2565b95506020870135915080821115611c6a57600080fd5b50611c7787828801611b08565b9350506040850135611c8881611c02565b91506060850135611c9881611c02565b939692955090935050565b600060208284031215611cb557600080fd5b813561111e81611c02565b600060208284031215611cd257600080fd5b5035919050565b60008060408385031215611cec57600080fd5b823567ffffffffffffffff80821115611d0457600080fd5b611d1086838701611ab2565b93506020850135915080821115611d2657600080fd5b50611d3385828601611b08565b9150509250929050565b600060208284031215611d4f57600080fd5b813567ffffffffffffffff811115611d6657600080fd5b61158b84828501611ab2565b600060208284031215611d8457600080fd5b815161111e81611c02565b600060208284031215611da157600080fd5b5051919050565b60005b83811015611dc3578181015183820152602001611dab565b50506000910152565b60008151808452611de4816020860160208601611da8565b601f01601f19169290920160200192915050565b60208152600061111e6020830184611dcc565b600060208284031215611e1d57600080fd5b8151801515811461111e57600080fd5b60006020808301818452808551808352604092508286019150828160051b87010184880160005b83811015611ea457888303603f1901855281518051878552611e7888860182611dcc565b91890151858303868b0152919050611e908183611dcc565b968901969450505090860190600101611e54565b509098975050505050505050565b60008060408385031215611ec557600080fd5b825167ffffffffffffffff811115611edc57600080fd5b8301601f81018513611eed57600080fd5b8051611efb611ad182611a8a565b818152866020838501011115611f1057600080fd5b611f21826020830160208601611da8565b809450505050602083015163ffffffff81168114611f3e57600080fd5b809150509250929050565b634e487b7160e01b600052601160045260246000fd5b808201808211156102e7576102e7611f49565b818103818111156102e7576102e7611f49565b604081526000611f986040830185611dcc565b905063ffffffff831660208301529392505050565b634e487b7160e01b600052603260045260246000fd5b600082611fe057634e487b7160e01b600052601260045260246000fd5b500690565b600081611ff457611ff4611f49565b506000190190565b80820281158282048414176102e7576102e7611f49565b634e487b7160e01b600052600160045260246000fd5b600181815b8085111561206457816000190482111561204a5761204a611f49565b8085161561205757918102915b93841c939080029061202e565b509250929050565b60008261207b575060016102e7565b81612088575060006102e7565b816001811461209e57600281146120a8576120c4565b60019150506102e7565b60ff8411156120b9576120b9611f49565b50506001821b6102e7565b5060208310610133831016604e8410600b84101617156120e7575081810a6102e7565b6120f18383612029565b806000190482111561210557612105611f49565b029392505050565b600061111e838361206c565b818103600083128015838313168383128216171561213957612139611f49565b509291505056fea2646970667358221220a213734dae41ff12eddee6940f6ae12bfbc6978fb3203c4a2716ae68fcc912ae64736f6c63430008110033",
  "devdoc": {
    "details": "An ENS registrar that allows the owner of a DNS name to claim the      corresponding name in ENS.",
    "kind": "dev",
    "methods": {
      "proveAndClaim(bytes,(bytes,bytes)[])": {
        "details": "Submits proofs to the DNSSEC oracle, then claims a name using those proofs.",
        "params": {
          "input": "A chain of signed DNS RRSETs ending with a text record.",
          "name": "The name to claim, in DNS wire format."
        }
      }
    },
    "version": 1
  },
  "userdoc": {
    "kind": "user",
    "methods": {},
    "version": 1
  },
  "storageLayout": {
    "storage": [
      {
        "astId": 3588,
        "contract": "contracts/dnsregistrar/DNSRegistrar.sol:DNSRegistrar",
        "label": "suffixes",
        "offset": 0,
        "slot": "0",
        "type": "t_contract(PublicSuffixList)4189"
      },
      {
        "astId": 3596,
        "contract": "contracts/dnsregistrar/DNSRegistrar.sol:DNSRegistrar",
        "label": "inceptions",
        "offset": 0,
        "slot": "1",
        "type": "t_mapping(t_bytes32,t_uint32)"
      }
    ],
    "types": {
      "t_bytes32": {
        "encoding": "inplace",
        "label": "bytes32",
        "numberOfBytes": "32"
      },
      "t_contract(PublicSuffixList)4189": {
        "encoding": "inplace",
        "label": "contract PublicSuffixList",
        "numberOfBytes": "20"
      },
      "t_mapping(t_bytes32,t_uint32)": {
        "encoding": "mapping",
        "key": "t_bytes32",
        "label": "mapping(bytes32 => uint32)",
        "numberOfBytes": "32",
        "value": "t_uint32"
      },
      "t_uint32": {
        "encoding": "inplace",
        "label": "uint32",
        "numberOfBytes": "4"
      }
    }
  }
}