{
  "address": "0xBbC6854E53d6Bd3D9317Aef372c70A5C4899a7E2",
  "abi": [
    {
      "inputs": [
        {
          "internalType": "bytes",
          "name": "_anchors",
          "type": "bytes"
        }
      ],
      "stateMutability": "nonpayable",
      "type": "constructor"
    },
    {
      "inputs": [
        {
          "internalType": "uint16",
          "name": "class",
          "type": "uint16"
        }
      ],
      "name": "InvalidClass",
      "type": "error"
    },
    {
      "inputs": [
        {
          "internalType": "bytes",
          "name": "name",
          "type": "bytes"
        },
        {
          "internalType": "uint256",
          "name": "labelsExpected",
          "type": "uint256"
        }
      ],
      "name": "InvalidLabelCount",
      "type": "error"
    },
    {
      "inputs": [
        {
          "internalType": "uint16",
          "name": "proofType",
          "type": "uint16"
        }
      ],
      "name": "InvalidProofType",
      "type": "error"
    },
    {
      "inputs": [],
      "name": "InvalidRRSet",
      "type": "error"
    },
    {
      "inputs": [
        {
          "internalType": "bytes",
          "name": "rrsetName",
          "type": "bytes"
        },
        {
          "internalType": "bytes",
          "name": "signerName",
          "type": "bytes"
        }
      ],
      "name": "InvalidSignerName",
      "type": "error"
    },
    {
      "inputs": [
        {
          "internalType": "bytes",
          "name": "signerName",
          "type": "bytes"
        }
      ],
      "name": "NoMatchingProof",
      "type": "error"
    },
    {
      "inputs": [
        {
          "internalType": "bytes",
          "name": "signerName",
          "type": "bytes"
        },
        {
          "internalType": "bytes",
          "name": "proofName",
          "type": "bytes"
        }
      ],
      "name": "ProofNameMismatch",
      "type": "error"
    },
    {
      "inputs": [
        {
          "internalType": "uint32",
          "name": "expiration",
          "type": "uint32"
        },
        {
          "internalType": "uint32",
          "name": "now",
          "type": "uint32"
        }
      ],
      "name": "SignatureExpired",
      "type": "error"
    },
    {
      "inputs": [
        {
          "internalType": "uint32",
          "name": "inception",
          "type": "uint32"
        },
        {
          "internalType": "uint32",
          "name": "now",
          "type": "uint32"
        }
      ],
      "name": "SignatureNotValidYet",
      "type": "error"
    },
    {
      "inputs": [
        {
          "internalType": "uint16",
          "name": "rrsetType",
          "type": "uint16"
        },
        {
          "internalType": "uint16",
          "name": "sigType",
          "type": "uint16"
        }
      ],
      "name": "SignatureTypeMismatch",
      "type": "error"
    },
    {
      "anonymous": false,
      "inputs": [
        {
          "indexed": false,
          "internalType": "uint8",
          "name": "id",
          "type": "uint8"
        },
        {
          "indexed": false,
          "internalType": "address",
          "name": "addr",
          "type": "address"
        }
      ],
      "name": "AlgorithmUpdated",
      "type": "event"
    },
    {
      "anonymous": false,
      "inputs": [
        {
          "indexed": false,
          "internalType": "uint8",
          "name": "id",
          "type": "uint8"
        },
        {
          "indexed": false,
          "internalType": "address",
          "name": "addr",
          "type": "address"
        }
      ],
      "name": "DigestUpdated",
      "type": "event"
    },
    {
      "inputs": [
        {
          "internalType": "uint8",
          "name": "",
          "type": "uint8"
        }
      ],
      "name": "algorithms",
      "outputs": [
        {
          "internalType": "contract Algorithm",
          "name": "",
          "type": "address"
        }
      ],
      "stateMutability": "view",
      "type": "function"
    },
    {
      "inputs": [],
      "name": "anchors",
      "outputs": [
        {
          "internalType": "bytes",
          "name": "",
          "type": "bytes"
        }
      ],
      "stateMutability": "view",
      "type": "function"
    },
    {
      "inputs": [
        {
          "internalType": "uint8",
          "name": "",
          "type": "uint8"
        }
      ],
      "name": "digests",
      "outputs": [
        {
          "internalType": "contract Digest",
          "name": "",
          "type": "address"
        }
      ],
      "stateMutability": "view",
      "type": "function"
    },
    {
      "inputs": [],
      "name": "owner",
      "outputs": [
        {
          "internalType": "address",
          "name": "",
          "type": "address"
        }
      ],
      "stateMutability": "view",
      "type": "function"
    },
    {
      "inputs": [
        {
          "internalType": "uint8",
          "name": "id",
          "type": "uint8"
        },
        {
          "internalType": "contract Algorithm",
          "name": "algo",
          "type": "address"
        }
      ],
      "name": "setAlgorithm",
      "outputs": [],
      "stateMutability": "nonpayable",
      "type": "function"
    },
    {
      "inputs": [
        {
          "internalType": "uint8",
          "name": "id",
          "type": "uint8"
        },
        {
          "internalType": "contract Digest",
          "name": "digest",
          "type": "address"
        }
      ],
      "name": "setDigest",
      "outputs": [],
      "stateMutability": "nonpayable",
      "type": "function"
    },
    {
      "inputs": [
        {
          "internalType": "address",
          "name": "newOwner",
          "type": "address"
        }
      ],
      "name": "setOwner",
      "outputs": [],
      "stateMutability": "nonpayable",
      "type": "function"
    },
    {
      "inputs": [
        {
          "components": [
            {
              "internalType": "bytes",
              "name": "rrset",
              "type": "bytes"
            },
            {
              "internalType": "bytes",
              "name": "sig",
              "type": "bytes"
            }
          ],
          "internalType": "struct DNSSEC.RRSetWithSignature[]",
          "name": "input",
          "type": "tuple[]"
        },
        {
          "internalType": "uint256",
          "name": "now",
          "type": "uint256"
        }
      ],
      "name": "verifyRRSet",
      "outputs": [
        {
          "internalType": "bytes",
          "name": "rrs",
          "type": "bytes"
        },
        {
          "internalType": "uint32",
          "name": "inception",
          "type": "uint32"
        }
      ],
      "stateMutability": "view",
      "type": "function"
    },
    {
      "inputs": [
        {
          "components": [
            {
              "internalType": "bytes",
              "name": "rrset",
              "type": "bytes"
            },
            {
              "internalType": "bytes",
              "name": "sig",
              "type": "bytes"
            }
          ],
          "internalType": "struct DNSSEC.RRSetWithSignature[]",
          "name": "input",
          "type": "tuple[]"
        }
      ],
      "name": "verifyRRSet",
      "outputs": [
        {
          "internalType": "bytes",
          "name": "rrs",
          "type": "bytes"
        },
        {
          "internalType": "uint32",
          "name": "inception",
          "type": "uint32"
        }
      ],
      "stateMutability": "view",
      "type": "function"
    }
  ],
  "transactionHash": "0x3835480a9c14c979dbf2f5f5cf6a7625f9aaf883567708639abd42390cdb934b",
  "args": [
    "0x00002b000100000e1000244a5c080249aac11d7b6f6446702e54a1607371607a1a41855200fd2ce1cdde32f24e8fb500002b000100000e1000244f660802e06d44b80b8f1d39a95c0b0d7c65d08458e880409bbc683457104237c7f8ec8d00002b000100000e10000404fefdfd"
  ],
  "numDeployments": 2,
  "solcInputHash": "0abd204bc166027a79b4a4534bc42e69",
  "bytecode": "0x60806040523480156200001157600080fd5b506040516200205638038062002056833981016040819052620000349162000072565b600180546001600160a01b031916331790556000620000548282620001d6565b5050620002a2565b634e487b7160e01b600052604160045260246000fd5b600060208083850312156200008657600080fd5b82516001600160401b03808211156200009e57600080fd5b818501915085601f830112620000b357600080fd5b815181811115620000c857620000c86200005c565b604051601f8201601f19908116603f01168101908382118183101715620000f357620000f36200005c565b8160405282815288868487010111156200010c57600080fd5b600093505b8284101562000130578484018601518185018701529285019262000111565b600086848301015280965050505050505092915050565b600181811c908216806200015c57607f821691505b6020821081036200017d57634e487b7160e01b600052602260045260246000fd5b50919050565b601f821115620001d157600081815260208120601f850160051c81016020861015620001ac5750805b601f850160051c820191505b81811015620001cd57828155600101620001b8565b5050505b505050565b81516001600160401b03811115620001f257620001f26200005c565b6200020a8162000203845462000147565b8462000183565b602080601f831160018114620002425760008415620002295750858301515b600019600386901b1c1916600185901b178555620001cd565b600085815260208120601f198616915b82811015620002735788860151825594840194600190910190840162000252565b5085821015620002925787850151600019600388901b60f8161c191681555b5050505050600190811b01905550565b611da480620002b26000396000f3fe608060405234801561001057600080fd5b50600436106100a35760003560e01c806373cc48a61161007657806398d35f201161005b57806398d35f2014610161578063bdf95fef14610176578063c327deef1461018957600080fd5b806373cc48a61461010d5780638da5cb5b1461014e57600080fd5b8063020ed8d3146100a857806313af4035146100bd57806328e7677d146100d0578063440f3d42146100e3575b600080fd5b6100bb6100b6366004611871565b6101b2565b005b6100bb6100cb3660046118a8565b610241565b6100bb6100de366004611871565b610287565b6100f66100f1366004611a9f565b61030e565b604051610104929190611b2a565b60405180910390f35b61013661011b366004611b52565b6003602052600090815260409020546001600160a01b031681565b6040516001600160a01b039091168152602001610104565b600154610136906001600160a01b031681565b610169610400565b6040516101049190611b6d565b6100f6610184366004611b80565b61048e565b610136610197366004611b52565b6002602052600090815260409020546001600160a01b031681565b6001546001600160a01b031633146101c957600080fd5b60ff8216600081815260026020908152604091829020805473ffffffffffffffffffffffffffffffffffffffff19166001600160a01b0386169081179091558251938452908301527ff73c3c226af96b7f1ba666a21b3ceaf2be3ee6a365e3178fd9cd1eaae0075aa891015b60405180910390a15050565b6001546001600160a01b0316331461025857600080fd5b6001805473ffffffffffffffffffffffffffffffffffffffff19166001600160a01b0392909216919091179055565b6001546001600160a01b0316331461029e57600080fd5b60ff8216600081815260036020908152604091829020805473ffffffffffffffffffffffffffffffffffffffff19166001600160a01b0386169081179091558251938452908301527f2fcc274c3b72dd483ab201bfa87295e3817e8b9b10693219873b722ca1af00c79101610235565b60606000806000805461032090611bb5565b80601f016020809104026020016040519081016040528092919081815260200182805461034c90611bb5565b80156103995780601f1061036e57610100808354040283529160200191610399565b820191906000526020600020905b81548152906001019060200180831161037c57829003601f168201915b5050505050905060005b85518110156103f65760006103d28783815181106103c3576103c3611bef565b602002602001015184886104a5565b61010081015160a090910151945092508190506103ee81611c1b565b9150506103a3565b5091509250929050565b6000805461040d90611bb5565b80601f016020809104026020016040519081016040528092919081815260200182805461043990611bb5565b80156104865780601f1061045b57610100808354040283529160200191610486565b820191906000526020600020905b81548152906001019060200180831161046957829003601f168201915b505050505081565b6060600061049c834261030e565b91509150915091565b604080516101408101825260008082526020820181905291810182905260608082018390526080820183905260a0820183905260c082019290925260e081018290526101008101829052610120810191909152835161050390610647565b90506000610515828360000151610789565b604083015190915060ff1661052b8260006108e6565b14610573578082604001516040517fe861b2bd00000000000000000000000000000000000000000000000000000000815260040161056a929190611c34565b60405180910390fd5b6101208201819052608082015160009084900360030b12156105d75760808201516040517fa784f87e00000000000000000000000000000000000000000000000000000000815263ffffffff9182166004820152908416602482015260440161056a565b60a0820151600090840360030b12156106325760a08201516040517fbd41036a00000000000000000000000000000000000000000000000000000000815263ffffffff9182166004820152908416602482015260440161056a565b61063e8183878761094c565b505b9392505050565b604080516101408101825260008082526020820181905291810182905260608082018390526080820183905260a0820183905260c0820183905260e082018190526101008201819052610120820152906106a2908390610a16565b61ffff1681526106b3826002610a3e565b60ff1660208201526106c6826003610a3e565b60ff1660408201526106d9826004610a62565b63ffffffff90811660608301526106f5908390600890610a6216565b63ffffffff9081166080830152610711908390600c90610a6216565b63ffffffff90811660a083015261072d908390601090610a1616565b61ffff1660c0820152610741826012610a8c565b60e082018190525161077e90610758906012611c59565b8260e00151516012855161076c9190611c6c565b6107769190611c6c565b849190610aaf565b610100820152919050565b6060600061079684610b31565b90505b805151602082015110156108df57606081015161ffff166001146107f55760608101516040517f98a5f31a00000000000000000000000000000000000000000000000000000000815261ffff909116600482015260240161056a565b815160000361080e5761080781610b8f565b9150610878565b6020810151815161081e91610bb0565b8251141580610841575080516020820151835161083f928592600092610c0a565b155b15610878576040517fcbceee6f00000000000000000000000000000000000000000000000000000000815260040160405180910390fd5b8261ffff16816040015161ffff16146108d15760408082015190517fa6ff8a8a00000000000000000000000000000000000000000000000000000000815261ffff9182166004820152908416602482015260440161056a565b6108da81610c2d565b610799565b5092915050565b6000805b835183106108fa576108fa611c7f565b60006109068585610a3e565b60ff169050610916816001611c59565b6109209085611c59565b9350806000036109305750610943565b61093b600183611c59565b9150506108ea565b90505b92915050565b60e083015161095c908590610d15565b6109995760e08301516040517feaafc59b00000000000000000000000000000000000000000000000000000000815261056a918691600401611c95565b60006109a58282610d72565b9050602b61ffff16816040015161ffff16036109cb576109c6848483610dd3565b610a0f565b603061ffff16816040015161ffff16036109ea576109c6848483610ec0565b60408082015190516361529e8760e01b815261ffff909116600482015260240161056a565b5050505050565b8151600090610a26836002611c59565b1115610a3157600080fd5b50016002015161ffff1690565b6000828281518110610a5257610a52611bef565b016020015160f81c905092915050565b8151600090610a72836004611c59565b1115610a7d57600080fd5b50016004015163ffffffff1690565b60606000610a9a8484610bb0565b9050610aa7848483610aaf565b949350505050565b8251606090610abe8385611c59565b1115610ac957600080fd5b60008267ffffffffffffffff811115610ae457610ae46118c5565b6040519080825280601f01601f191660200182016040528015610b0e576020820181803683370190505b50905060208082019086860101610b26828287610f88565b509095945050505050565b610b7f6040518060e001604052806060815260200160008152602001600061ffff168152602001600061ffff168152602001600063ffffffff16815260200160008152602001600081525090565b6109468261010001516000610d72565b6020810151815160609161094691610ba79082610bb0565b84519190610aaf565b6000815b83518110610bc457610bc4611c7f565b6000610bd08583610a3e565b60ff169050610be0816001611c59565b610bea9083611c59565b915080600003610bfa5750610c00565b50610bb4565b610aa78382611c6c565b6000610c17848484610fde565b610c22878785610fde565b149695505050505050565b60c08101516020820181905281515111610c445750565b6000610c5882600001518360200151610bb0565b8260200151610c679190611c59565b8251909150610c769082610a16565b61ffff166040830152610c8a600282611c59565b8251909150610c999082610a16565b61ffff166060830152610cad600282611c59565b8251909150610cbc9082610a62565b63ffffffff166080830152610cd2600482611c59565b8251909150600090610ce49083610a16565b61ffff169050610cf5600283611c59565b60a084018190529150610d088183611c59565b60c0909301929092525050565b60008080610d2385826108e6565b90506000610d328560006108e6565b90505b80821115610d5b57610d478684611002565b925081610d5381611cc3565b925050610d35565b610d688684876000611026565b9695505050505050565b610dc06040518060e001604052806060815260200160008152602001600061ffff168152602001600061ffff168152602001600063ffffffff16815260200160008152602001600081525090565b82815260c0810182905261094681610c2d565b60208101516000610de385610b31565b90505b80515160208201511015610ea057604081015161ffff16603014610e295760408082015190516361529e8760e01b815261ffff909116600482015260240161056a565b6000610e348261105b565b90506000610e4f60008351846110779092919063ffffffff16565b9050610e5d81838989611115565b15610e9057610e728760e00151868385611254565b15610e805750505050505050565b60c08501849052610e9085610c2d565b5050610e9b81610c2d565b610de6565b508360e001516040516306cde0f360e01b815260040161056a9190611b6d565b80515160208201511015610f69576000610ed982610b8f565b9050610ef28460e001518261139190919063ffffffff16565b610f17578360e0015181604051636b80573f60e11b815260040161056a929190611c95565b6000610f228361105b565b90506000610f3d60008351846110779092919063ffffffff16565b9050610f4b81838888611115565b15610f5857505050505050565b505050610f6481610c2d565b610ec0565b8260e001516040516306cde0f360e01b815260040161056a9190611b6d565b60208110610fc05781518352610f9f602084611c59565b9250610fac602083611c59565b9150610fb9602082611c6c565b9050610f88565b905182516020929092036101000a6000190180199091169116179052565b8251600090610fed8385611c59565b1115610ff857600080fd5b5091016020012090565b600061100e8383610a3e565b60ff1661101c836001611c59565b6109439190611c59565b600061103f838384865161103a9190611c6c565b610fde565b611051868687895161103a9190611c6c565b1495945050505050565b60a081015160c082015160609161094691610ba7908290611c6c565b60408051608081018252600080825260208201819052918101919091526060808201526110af6110a8600085611c59565b8590610a16565b61ffff1681526110ca6110c3600285611c59565b8590610a3e565b60ff1660208201526110e06110c3600385611c59565b60ff1660408201526111096110f6600485611c59565b611101600485611c6c565b869190610aaf565b60608201529392505050565b6000846020015160ff1660031461112e57506000610aa7565b826020015160ff16856040015160ff161461114b57506000610aa7565b6000611156856113af565b90508360c0015161ffff168161ffff1614611175576000915050610aa7565b85516101001660000361118c576000915050610aa7565b60408087015160ff166000908152600260205220546001600160a01b0316806111ba57600092505050610aa7565b835160208501516040517fde8f50a10000000000000000000000000000000000000000000000000000000081526001600160a01b0384169263de8f50a192611208928b929190600401611cda565b602060405180830381865afa158015611225573d6000803e3d6000fd5b505050506040513d601f19601f820116820180604052508101906112499190611d13565b979650505050505050565b600080611260836113af565b90505b8451516020860151101561138557600061127c86610b8f565b90506112888188611391565b6112a9578681604051636b80573f60e11b815260040161056a929190611c95565b60a086015160c08701516000916112ce916112c5908290611c6c565b89519190611077565b90508261ffff16816000015161ffff16146112ea575050611377565b856040015160ff16816020015160ff1614611306575050611377565b60408051808201909152606081526000602082015261133386518a5161132c9190611c59565b82906115f3565b5061133e818a61166a565b50611349818761166a565b5061136182604001518260000151846060015161168b565b15611373576001945050505050610aa7565b5050505b61138085610c2d565b611263565b50600095945050505050565b60008151835114801561094357506109438360008460008751610c0a565b60006120008251111561141e576040517f08c379a000000000000000000000000000000000000000000000000000000000815260206004820152601760248201527f4c6f6e67206b657973206e6f74207065726d6974746564000000000000000000604482015260640161056a565b60008060005b8451601f0181101561149357600081602087010151905085518260200111156114595785518290036008026101000390811c901b5b7eff00ff00ff00ff00ff00ff00ff00ff00ff00ff00ff00ff00ff00ff00ff00ff600882901c81169490940193169190910190602001611424565b506010827fffff0000ffff0000ffff0000ffff0000ffff0000ffff0000ffff0000ffff000016901c827dffff0000ffff0000ffff0000ffff0000ffff0000ffff0000ffff0000ffff160191506010817fffff0000ffff0000ffff0000ffff0000ffff0000ffff0000ffff0000ffff000016901c817dffff0000ffff0000ffff0000ffff0000ffff0000ffff0000ffff0000ffff1601905080600883901b0191506020827fffffffff00000000ffffffff00000000ffffffff00000000ffffffff0000000016901c827bffffffff00000000ffffffff00000000ffffffff00000000ffffffff160191506040827fffffffffffffffff0000000000000000ffffffffffffffff000000000000000016901c8277ffffffffffffffff0000000000000000ffffffffffffffff16019150608082901c826fffffffffffffffffffffffffffffffff16019150601082901c61ffff16820191508192505050919050565b604080518082019091526060815260006020820152611613602083611d35565b1561163b57611623602083611d35565b61162e906020611c6c565b6116389083611c59565b91505b60208084018390526040518085526000815290818401018181101561165f57600080fd5b604052509192915050565b60408051808201909152606081526000602082015261094383838451611750565b60ff83166000908152600360205260408120546001600160a01b03166116b357506000610640565b60ff8416600090815260036020526040908190205490517ff7e83aee0000000000000000000000000000000000000000000000000000000081526001600160a01b039091169063f7e83aee9061170f9086908690600401611c95565b602060405180830381865afa15801561172c573d6000803e3d6000fd5b505050506040513d601f19601f82011682018060405250810190610aa79190611d13565b604080518082019091526060815260006020820152825182111561177357600080fd5b83515160006117828483611c59565b905085602001518111156117a4576117a48661179f836002611d57565b611826565b8551805183820160200191600091808511156117be578482525b505050602086015b602086106117fe57805182526117dd602083611c59565b91506117ea602082611c59565b90506117f7602087611c6c565b95506117c6565b51815160001960208890036101000a0190811690199190911617905250849150509392505050565b815161183283836115f3565b5061183d838261166a565b50505050565b803560ff8116811461185457600080fd5b919050565b6001600160a01b038116811461186e57600080fd5b50565b6000806040838503121561188457600080fd5b61188d83611843565b9150602083013561189d81611859565b809150509250929050565b6000602082840312156118ba57600080fd5b813561094381611859565b634e487b7160e01b600052604160045260246000fd5b6040805190810167ffffffffffffffff811182821017156118fe576118fe6118c5565b60405290565b604051601f8201601f1916810167ffffffffffffffff8111828210171561192d5761192d6118c5565b604052919050565b600082601f83011261194657600080fd5b813567ffffffffffffffff811115611960576119606118c5565b611973601f8201601f1916602001611904565b81815284602083860101111561198857600080fd5b816020850160208301376000918101602001919091529392505050565b600082601f8301126119b657600080fd5b8135602067ffffffffffffffff808311156119d3576119d36118c5565b8260051b6119e2838201611904565b93845285810183019383810190888611156119fc57600080fd5b84880192505b85831015611a9357823584811115611a1a5760008081fd5b88016040818b03601f1901811315611a325760008081fd5b611a3a6118db565b8783013587811115611a4c5760008081fd5b611a5a8d8a83870101611935565b825250908201359086821115611a705760008081fd5b611a7e8c8984860101611935565b81890152845250509184019190840190611a02565b98975050505050505050565b60008060408385031215611ab257600080fd5b823567ffffffffffffffff811115611ac957600080fd5b611ad5858286016119a5565b95602094909401359450505050565b6000815180845260005b81811015611b0a57602081850181015186830182015201611aee565b506000602082860101526020601f19601f83011685010191505092915050565b604081526000611b3d6040830185611ae4565b905063ffffffff831660208301529392505050565b600060208284031215611b6457600080fd5b61094382611843565b6020815260006109436020830184611ae4565b600060208284031215611b9257600080fd5b813567ffffffffffffffff811115611ba957600080fd5b610aa7848285016119a5565b600181811c90821680611bc957607f821691505b602082108103611be957634e487b7160e01b600052602260045260246000fd5b50919050565b634e487b7160e01b600052603260045260246000fd5b634e487b7160e01b600052601160045260246000fd5b600060018201611c2d57611c2d611c05565b5060010190565b604081526000611c476040830185611ae4565b905060ff831660208301529392505050565b8082018082111561094657610946611c05565b8181038181111561094657610946611c05565b634e487b7160e01b600052600160045260246000fd5b604081526000611ca86040830185611ae4565b8281036020840152611cba8185611ae4565b95945050505050565b600081611cd257611cd2611c05565b506000190190565b606081526000611ced6060830186611ae4565b8281036020840152611cff8186611ae4565b90508281036040840152610d688185611ae4565b600060208284031215611d2557600080fd5b8151801515811461094357600080fd5b600082611d5257634e487b7160e01b600052601260045260246000fd5b500690565b808202811582820484141761094657610946611c0556fea2646970667358221220e740b7c25fcb6a8d96cd167fb260ec85c1f5a0dcc05547043e12722d22c99b9a64736f6c63430008110033",
  "devdoc": {
    "kind": "dev",
    "methods": {
      "constructor": {
        "details": "Constructor.",
        "params": {
          "_anchors": "The binary format RR entries for the root DS records."
        }
      },
      "setAlgorithm(uint8,address)": {
        "details": "Sets the contract address for a signature verification algorithm.      Callable only by the owner.",
        "params": {
          "algo": "The address of the algorithm contract.",
          "id": "The algorithm ID"
        }
      },
      "setDigest(uint8,address)": {
        "details": "Sets the contract address for a digest verification algorithm.      Callable only by the owner.",
        "params": {
          "digest": "The address of the digest contract.",
          "id": "The digest ID"
        }
      },
      "verifyRRSet((bytes,bytes)[])": {
        "details": "Takes a chain of signed DNS records, verifies them, and returns the data from the last record set in the chain.      Reverts if the records do not form an unbroken chain of trust to the DNSSEC anchor records.",
        "params": {
          "input": "A list of signed RRSets."
        },
        "returns": {
          "inception": "The inception time of the signed record set.",
          "rrs": "The RRData from the last RRSet in the chain."
        }
      },
      "verifyRRSet((bytes,bytes)[],uint256)": {
        "details": "Takes a chain of signed DNS records, verifies them, and returns the data from the last record set in the chain.      Reverts if the records do not form an unbroken chain of trust to the DNSSEC anchor records.",
        "params": {
          "input": "A list of signed RRSets.",
          "now": "The Unix timestamp to validate the records at."
        },
        "returns": {
          "inception": "The inception time of the signed record set.",
          "rrs": "The RRData from the last RRSet in the chain."
        }
      }
    },
    "version": 1
  },
  "userdoc": {
    "kind": "user",
    "methods": {},
    "version": 1
  },
  "storageLayout": {
    "storage": [
      {
        "astId": 3358,
        "contract": "contracts/dnssec-oracle/DNSSECImpl.sol:DNSSECImpl",
        "label": "anchors",
        "offset": 0,
        "slot": "0",
        "type": "t_bytes_storage"
      },
      {
        "astId": 4335,
        "contract": "contracts/dnssec-oracle/DNSSECImpl.sol:DNSSECImpl",
        "label": "owner",
        "offset": 0,
        "slot": "1",
        "type": "t_address"
      },
      {
        "astId": 3490,
        "contract": "contracts/dnssec-oracle/DNSSECImpl.sol:DNSSECImpl",
        "label": "algorithms",
        "offset": 0,
        "slot": "2",
        "type": "t_mapping(t_uint8,t_contract(Algorithm)5498)"
      },
      {
        "astId": 3495,
        "contract": "contracts/dnssec-oracle/DNSSECImpl.sol:DNSSECImpl",
        "label": "digests",
        "offset": 0,
        "slot": "3",
        "type": "t_mapping(t_uint8,t_contract(Digest)7339)"
      }
    ],
    "types": {
      "t_address": {
        "encoding": "inplace",
        "label": "address",
        "numberOfBytes": "20"
      },
      "t_bytes_storage": {
        "encoding": "bytes",
        "label": "bytes",
        "numberOfBytes": "32"
      },
      "t_contract(Algorithm)5498": {
        "encoding": "inplace",
        "label": "contract Algorithm",
        "numberOfBytes": "20"
      },
      "t_contract(Digest)7339": {
        "encoding": "inplace",
        "label": "contract Digest",
        "numberOfBytes": "20"
      },
      "t_mapping(t_uint8,t_contract(Algorithm)5498)": {
        "encoding": "mapping",
        "key": "t_uint8",
        "label": "mapping(uint8 => contract Algorithm)",
        "numberOfBytes": "32",
        "value": "t_contract(Algorithm)5498"
      },
      "t_mapping(t_uint8,t_contract(Digest)7339)": {
        "encoding": "mapping",
        "key": "t_uint8",
        "label": "mapping(uint8 => contract Digest)",
        "numberOfBytes": "32",
        "value": "t_contract(Digest)7339"
      },
      "t_uint8": {
        "encoding": "inplace",
        "label": "uint8",
        "numberOfBytes": "1"
      }
    }
  }
}