{
  "address": "0xdEc8Ff8b1Dd0D3963a2499995c84311166DaaD83",
  "abi": [
    {
      "inputs": [
        {
          "internalType": "bytes",
          "name": "",
          "type": "bytes"
        },
        {
          "internalType": "bytes",
          "name": "",
          "type": "bytes"
        },
        {
          "internalType": "bytes",
          "name": "",
          "type": "bytes"
        }
      ],
      "name": "verify",
      "outputs": [
        {
          "internalType": "bool",
          "name": "",
          "type": "bool"
        }
      ],
      "stateMutability": "view",
      "type": "function"
    }
  ],
  "transactionHash": "0xb896abbfa4fd110dc49d81211d09da1cbcf31a765bf68c18916d4833916ea838",
  "args": [],
  "numDeployments": 2,
  "solcInputHash": "0abd204bc166027a79b4a4534bc42e69",
  "bytecode": "0x608060405234801561001057600080fd5b50610177806100206000396000f3fe608060405234801561001057600080fd5b506004361061002b5760003560e01c8063de8f50a114610030575b600080fd5b61004a61003e3660046100a7565b60019695505050505050565b604051901515815260200160405180910390f35b60008083601f84011261007057600080fd5b50813567ffffffffffffffff81111561008857600080fd5b6020830191508360208285010111156100a057600080fd5b9250929050565b600080600080600080606087890312156100c057600080fd5b863567ffffffffffffffff808211156100d857600080fd5b6100e48a838b0161005e565b909850965060208901359150808211156100fd57600080fd5b6101098a838b0161005e565b9096509450604089013591508082111561012257600080fd5b5061012f89828a0161005e565b979a969950949750929593949250505056fea26469706673582212208e63cc0e7590ed65ef6384b06b031edc883e1a79a885ad24029c71074601280a64736f6c63430008110033",
  "devdoc": {
    "details": "Implements a dummy DNSSEC (signing) algorithm that approves all      signatures, for testing.",
    "kind": "dev",
    "methods": {},
    "version": 1
  },
  "userdoc": {
    "kind": "user",
    "methods": {},
    "version": 1
  },
  "storageLayout": {
    "storage": [],
    "types": null
  }
}