{
  "address": "0xA15431a61CcaBE2c80c53D9699C9149bD3d8e0b6",
  "abi": [
    {
      "inputs": [
        {
          "internalType": "bytes",
          "name": "",
          "type": "bytes"
        },
        {
          "internalType": "bytes",
          "name": "",
          "type": "bytes"
        }
      ],
      "name": "verify",
      "outputs": [
        {
          "internalType": "bool",
          "name": "",
          "type": "bool"
        }
      ],
      "stateMutability": "pure",
      "type": "function"
    }
  ],
  "transactionHash": "0x2c619cde70585946f09d74ffef9d0a187593717fab212b0d7d2722f36a3f5f07",
  "args": [],
  "numDeployments": 2,
  "solcInputHash": "0abd204bc166027a79b4a4534bc42e69",
  "bytecode": "0x608060405234801561001057600080fd5b50610147806100206000396000f3fe608060405234801561001057600080fd5b506004361061002b5760003560e01c8063f7e83aee14610030575b600080fd5b61004861003e3660046100a5565b6001949350505050565b604051901515815260200160405180910390f35b60008083601f84011261006e57600080fd5b50813567ffffffffffffffff81111561008657600080fd5b60208301915083602082850101111561009e57600080fd5b9250929050565b600080600080604085870312156100bb57600080fd5b843567ffffffffffffffff808211156100d357600080fd5b6100df8883890161005c565b909650945060208701359150808211156100f857600080fd5b506101058782880161005c565b9598949750955050505056fea2646970667358221220f34c7c6a8eda1bd95a8466f283ef4771f8249d22dc5954b966211863bf8aef2e64736f6c63430008110033",
  "devdoc": {
    "details": "Implements a dummy DNSSEC digest that approves all hashes, for testing.",
    "kind": "dev",
    "methods": {},
    "version": 1
  },
  "userdoc": {
    "kind": "user",
    "methods": {},
    "version": 1
  },
  "storageLayout": {
    "storage": [],
    "types": null
  }
}