{
  "address": "0xFAbb577831016086a41fC2a4aFfDCF78aE16ffA9",
  "abi": [
    {
      "inputs": [
        {
          "internalType": "bytes",
          "name": "key",
          "type": "bytes"
        },
        {
          "internalType": "bytes",
          "name": "data",
          "type": "bytes"
        },
        {
          "internalType": "bytes",
          "name": "sig",
          "type": "bytes"
        }
      ],
      "name": "verify",
      "outputs": [
        {
          "internalType": "bool",
          "name": "",
          "type": "bool"
        }
      ],
      "stateMutability": "view",
      "type": "function"
    }
  ],
  "transactionHash": "0x201afba50e5d630730bf489351ed0cd3b1941169056882bcf85215e58283c8e0",
  "args": [],
  "numDeployments": 2,
  "solcInputHash": "0abd204bc166027a79b4a4534bc42e69",
  "bytecode": "0x608060405234801561001057600080fd5b50610bac806100206000396000f3fe608060405234801561001057600080fd5b506004361061002b5760003560e01c8063de8f50a114610030575b600080fd5b61004361003e3660046109e6565b610057565b604051901515815260200160405180910390f35b600060608060006100a260048b8b8080601f01602080910402602001604051908101604052809392919081815260200183838082843760009201919091525092939250506103009050565b60ff169050801561016e576100f760058261ffff168c8c8080601f0160208091040260200160405190810160405280939291908181526020018383808284376000920191909152509294939250506103259050565b9250610167610107826005610a96565b61ffff9081169060059061011d9085168d610ab8565b6101279190610ab8565b8c8c8080601f0160208091040260200160405190810160405280939291908181526020018383808284376000920191909152509294939250506103259050565b9150610227565b6101b260058b8b8080601f01602080910402602001604051908101604052809392919081815260200183838082843760009201919091525092939250506103a99050565b90506101fe60078261ffff168c8c8080601f0160208091040260200160405190810160405280939291908181526020018383808284376000920191909152509294939250506103259050565b925061022461020e826007610a96565b61ffff9081169060079061011d9085168d610ab8565b91505b6000606061026c84868a8a8080601f0160208091040260200160405190810160405280939291908181526020018383808284376000920191909152506103d192505050565b90925090508180156102f057506102916014825161028a9190610ab8565b82906103ec565b6bffffffffffffffffffffffff19166102df8b8b8080601f01602080910402602001604051908101604052809392919081815260200183838082843760009201919091525061041f92505050565b6bffffffffffffffffffffffff1916145b9c9b505050505050505050505050565b600082828151811061031457610314610acb565b016020015160f81c90505b92915050565b82516060906103348385610ae1565b111561033f57600080fd5b60008267ffffffffffffffff81111561035a5761035a610af4565b6040519080825280601f01601f191660200182016040528015610384576020820181803683370190505b5090506020808201908686010161039c8282876108b0565b50909150505b9392505050565b81516000906103b9836002610ae1565b11156103c457600080fd5b50016002015161ffff1690565b600060606103e0838587610906565b91509150935093915050565b81516000906103fc836014610ae1565b111561040757600080fd5b5001602001516bffffffffffffffffffffffff191690565b60006040518251602084019350604067ffffffffffffffc060018301160160098282031060018103610452576040820191505b50776745230100efcdab890098badcfe001032547600c3d2e1f06104a4565b6000838310156103a2575080820151928290039260208410156103a25760001960208590036101000a0119169392505050565b60005b82811015610830576104ba848289610471565b85526104ca846020830189610471565b6020860152604081850310600181036104e65760808286038701535b506040830381146001810361050357602086018051600887021790525b5060405b608081101561058b57858101603f19810151603719820151601f19830151600b198401516002911891909218189081027ffffffffefffffffefffffffefffffffefffffffefffffffefffffffefffffffe1663800000009091047c010000000100000001000000010000000100000001000000010000000116179052600c01610507565b5060805b61014081101561061457858101607f19810151606f19820151603f198301516017198401516004911891909218189081027ffffffffcfffffffcfffffffcfffffffcfffffffcfffffffcfffffffcfffffffc1663400000009091047c03000000030000000300000003000000030000000300000003000000031617905260180161058f565b508160008060005b60508110156108065760148104801561064c576001811461067c57600281146106aa57600381146106dd57610707565b6501000000000085046a010000000000000000000086048118600160781b870416189350635a8279999250610707565b650100000000008504600160781b86046a0100000000000000000000870418189350636ed9eba19250610707565b6a01000000000000000000008504600160781b8604818117650100000000008804169116179350638f1bbcdc9250610707565b650100000000008504600160781b86046a010000000000000000000087041818935063ca62c1d692505b50601f770800000000000000000000000000000000000000000000008504168063ffffffe073080000000000000000000000000000000000000087041617905080840190508063ffffffff86160190508083019050807c0100000000000000000000000000000000000000000000000000000000600484028c015104019050740100000000000000000000000000000000000000008102650100000000008604179450506a0100000000000000000000633fffffff6a040000000000000000000086041663c00000006604000000000000870416170277ffffffff00ffffffff000000000000ffffffff00ffffffff851617935060018101905061061c565b5050509190910177ffffffff00ffffffff00ffffffff00ffffffff00ffffffff16906040016104a7565b506c0100000000000000000000000063ffffffff821667ffffffff000000006101008404166bffffffff0000000000000000620100008504166fffffffff000000000000000000000000630100000086041673ffffffff000000000000000000000000000000006401000000008704161717171702945050505050919050565b602081106108e857815183526108c7602084610ae1565b92506108d4602083610ae1565b91506108e1602082610ab8565b90506108b0565b905182516020929092036101000a6000190180199091169116179052565b60006060600085518551855188888860405160200161092a96959493929190610b3a565b6040516020818303038152906040529050835167ffffffffffffffff81111561095557610955610af4565b6040519080825280601f01601f19166020018201604052801561097f576020820181803683370190505b50915083516020830182516020840160055afa925050935093915050565b60008083601f8401126109af57600080fd5b50813567ffffffffffffffff8111156109c757600080fd5b6020830191508360208285010111156109df57600080fd5b9250929050565b600080600080600080606087890312156109ff57600080fd5b863567ffffffffffffffff80821115610a1757600080fd5b610a238a838b0161099d565b90985096506020890135915080821115610a3c57600080fd5b610a488a838b0161099d565b90965094506040890135915080821115610a6157600080fd5b50610a6e89828a0161099d565b979a9699509497509295939492505050565b634e487b7160e01b600052601160045260246000fd5b61ffff818116838216019080821115610ab157610ab1610a80565b5092915050565b8181038181111561031f5761031f610a80565b634e487b7160e01b600052603260045260246000fd5b8082018082111561031f5761031f610a80565b634e487b7160e01b600052604160045260246000fd5b6000815160005b81811015610b2b5760208185018101518683015201610b11565b50600093019283525090919050565b8681528560208201528460408201526000610b6a610b64610b5e6060850188610b0a565b86610b0a565b84610b0a565b9897505050505050505056fea26469706673582212201881ba729fd35114d9439926fa86306357a1add8aed57632a64e9bfee40cc4b964736f6c63430008110033",
  "devdoc": {
    "details": "Implements the DNSSEC RSASHA1 algorithm.",
    "kind": "dev",
    "methods": {},
    "version": 1
  },
  "userdoc": {
    "kind": "user",
    "methods": {},
    "version": 1
  },
  "storageLayout": {
    "storage": [],
    "types": null
  }
}